:020000021000EC
:10FC00001124C4B714BEC1FD07C0C3FDF6D08CB526
:10FC10008F7A8CBD8C2FDFD185E08093810082E0CC
:10FC20008093C00088E18093C10096E09093C20069
:10FC300090E19093C400809360008EE08093600018
:10FC4000579A86E020E33CEF91E0309385002093C3
:10FC5000840096BBB09BFECF4F9AA8958150A9F720
:10FC6000C0E0D0E008E128E0F22EEE24E39431E198
:10FC7000D32E13E089D1813469F486D1B82E92D184
:10FC800082E8B81619F1E1E8BE1609F476C083E0FF
:10FC900074D17CC0823411F484E103C0853419F43A
:10FCA00085E08CD173C0853569F46ED1C82F6CD1D5
:10FCB000D0E0D82B8D2F881F8827881F8BBFCC0FB3
:10FCC000DD1F63C0863521F484E078D180E0E0CF89
:10FCD000843609F03CC058D157D1C82E55D1C11532
:10FCE000F0EEDF0718F4FE0117BFE895A12CBB2446
:10FCF000B3944AD1F50181935F01CE12FACFC115B9
:10FD0000F0EEDF0718F0FE0117BFE8954BD107B6FC
:10FD100000FCFDCFFE01A0E0B1E08C9111962C918A
:10FD2000119790E0922B0C01E7BEE89511243296D2
:10FD30001296A11582E0B80781F785E0FE0187BF22
:10FD4000E89507B600FCFDCFD7BEE8951FC0843705
:10FD500069F41AD119D1B82E17D124D1FE01879197
:10FD6000EF010BD1BA94B110F9CF10C0853739F437
:10FD700019D18EE102D187E900D185E089CF8135A3
:10FD800021F400936000F09260000CD180E1F5D086
:10FD900071CF8EBD0DB407FEFDCF8EB508952C98A2
:10FDA00085E0F7DF80E0F5DF2C9A81700895CF932E
:10FDB000C82F662321F060E086E0F9DF2C9AEFDFA0
:10FDC0008111FDCF2C988C2FCF91E3CFCF92DF9272
:10FDD000EF92FF926B017C0160E083E0E8DF8E2D03
:10FDE000D8DF8D2DD6DF8C2DD4DF80E0D2DF2C9AAA
:10FDF000FF90EF90DF90CF9008959F92AF92BF92C7
:10FE0000CF92DF92EF92FF920F931F93CF93DF93E6
:10FE100088E1809360001092600084B1806A84B9A8
:10FE2000249A219A2C9A299A8CB580658CBD2C989D
:10FE30008FE9AFDF80E0ADDF2C9A81508E3F08F074
:10FE400090C061E081E0B3DF80E0A3DF2C9A60E046
:10FE500070E0CB01BBDF873509F083C061E070E063
:10FE600080E090E0B3DF863509F07BC062E070E0AF
:10FE700080E090E0ABDF8E3409F073C066E070E0A4
:10FE800080E090E0A3DF8A3309F06BC069E070E0A6
:10FE900080E090E09BDF8A3309F063C067E070E0A8
:10FEA00080E090E093DFC82F68E070E080E090E0B1
:10FEB0008DDFD0E0DC2FCC27C82BC0FD52C04F9A7D
:10FEC000C12CD12C00E010E0BB24B39483E0A82E19
:10FED00095E0992E0C171D0748F5B801665F7F4F16
:10FEE00080E090E073DFE82EF12CB801655F7F4F72
:10FEF00080E090E06BDFF82AF8010701B7BEE895D3
:10FF000011240E5F1F4F002319F0C017D10711F7FE
:10FF1000F601A7BEE89507B600FCFDCFF60197BE37
:10FF2000E89507B600FCFDCFD394D4CF4F9881E17C
:10FF300087BFE8952A9661E0C130D04810F482E589
:10FF400001C088ED34DF80E024DF80E022DF80E044
:10FF500020DF2C9A88E18093600088E08093600025
:10FF6000FFCFDF91CF911F910F91FF90EF90DF9026
:10FF7000CF90BF90AF909F9008959091C00095FF53
:10FF8000FCCF8093C60008954F9A8091C00087FFF0
:10FF9000FCCF8091C00084FD01C0A8958091C6006F
:10FFA0004F9A0895F1DF803239F088E18093600044
:10FFB00088E080936000FFCF84E1DFCFCF93C82F2C
:10FFC000E3DFC150E9F7CF91EDCFE0E6F0E098E153
:10FFD000908380830895282EE0E6F0E088E1808316
:08FFE0001082EE27FF270994AF
:02FFFE000005FC
:040000031000FC00ED
:00000001FF
